:100000006F100066130000001300000013000000D2
:100010001300000013000000130000001300000094
:100020001300000013000000130000001300000084
:08003000130000007300100032
:100038000000000000000000080300000C0300009E
:1000480000000000BA1500000000000000000000D9
:10005800BC150000BE1500000000000000000000F4
:10006800C015000000000000C215000000000000DC
:10007800C4150000C6150000C8150000CA15000008
:10008800CC150000CE150000D0150000D2150000D8
:10009800D4150000D6150000D8150000DA150000A8
:1000A800DC150000DE150000E0150000E215000078
:1000B800E4150000E6150000E8150000EA15000048
:1000C800EC150000EE150000F0150000F215000018
:1000D800F4150000F6150000F8150000FA150000E8
:1000E800FC150000700D000000160000021600004C
:1000F8000416000006160000081600000A16000084
:100108000C1600000E160000101600001216000053
:100118001416000016160000000000001816000053
:100128001A1600001C1600001E16000020160000FB
:1001380022160000241600002616000028160000CB
:100148002A1600002C1600002E160000301600009B
:10015800321600003416000036160000381600006B
:100168003A16000000000000000000000000000037
:100178000000000000000000000000003C16000025
:100188000000000000000000000000003E16000013
:1001980040160000421600004416000046160000F3
:1001A800481600004A1600004C1600004E160000C3
:1001B8005016000052160000541600005616000093
:1001C800581600005A1600005C1600005E16000063
:1001D8000000000000000000000000000000000017
:1001E8000000000000000000000000000000000007
:0801F8000000000000000000FF
:10020000397101436EC619A0397141536AC866CA73
:1002100062CC5ECE19A0397101535AD056D252D455
:100220004ED64AD826DA22DC06DE330161408282CD
:1002300041114AC026C222C406C68282B24D410183
:10024000024D924C224CB24B4101024B924A224A3F
:10025000B2494101024992442244B24041018280A4
:100260003D432A876373C3029377F700BDEFADE583
:10027000937606FF3D8ABA960CC34CC30CC74CC795
:100280004107E36BD7FE11E28280B306C3408A06C2
:100290009702000096966780A6002307B700A30682
:1002A000B7002306B700A305B7002305B700A304D2
:1002B000B7002304B700A303B7002303B700A302CA
:1002C000B7002302B700A301B7002301B700A300C2
:1002D000B7002300B700828093F5F50F9396850051
:1002E000D58D93960501D58D61B79396270097021A
:1002F000000096968682E78086FA9680C1171D8F49
:100300003E96E374C3F8A5B77300203001A0EFF266
:100310003FF2AA84371501408565130505C03744AF
:100320000040EF10807E1309048089454A85EF1054
:10033000102A65DDA68513050480EF10F028054519
:10034000EF10B04E371501408565130505C0EF105D
:10035000807B09B7EFF2DFED2A8421814D3F1375D1
:10036000F40F7537C5BDEFF2BFEC37140140AA8416
:1003700093050040130504C0EF1020792685413F06
:1003800093050040130504C0EF10E077E1B5EFF2EC
:100390003FEA41112A841305A00236C22EC632C498
:1003A000D9372285453F224632856D371305B00285
:1003B0005D3FB2452E85793F92463685613F1305F4
:1003C000C0025537410179B5EFF29FE6011185452D
:1003D000214502C002C202C402C602C802CA02CC3F
:1003E000231E0100EF10301185451165EF109012AA
:1003F000096937140140930709C08D442310F100A7
:100400008A85C147130504C03EC426C2EF100063AD
:100410008A8523102101130504C061494AC426C2FC
:10042000EF10C06191672310F1008A859147130591
:1004300004C03EC4EF108060E1778A85130504C0D4
:100440002310F1004AC426C2EF10405FB7C7040171
:100450003EC6B70702003EC8B707000285073ECA7E
:10046000B7440040A1473ECC6C009D4713850480F3
:10047000231EF100EF10D00D138504808545EF1089
:10048000D012130504C08565EF10E06701450561D2
:10049000D1B3EFF2FFD90545EF10303937150140E0
:1004A0008565130505C0EF1040666DB3EFF25FD8A8
:1004B0000545EF109037371501408565130505C0D8
:1004C000EF10606441BBEFF2BFD637440040AA840E
:1004D0001309048089454A85EF10700F65DD130507
:1004E000048093D5840037440040EF10F00D1309C9
:1004F000048089454A85EF10900D65DDA6851305BA
:100500000480EF10700CB9B3EFF21FD0BA893744F2
:1005100000402A8BAE84B28B368A93DA8900853DFF
:1005200013040480BD3763E94405374400401304D5
:10053000048089452285EF10900965DD853F09B368
:1005400089452285EF10B00865DDD6852285EF103C
:10055000B00789452285EF10900765DD0509CE8536
:1005600022854209EF10500613590901E36A79FD0B
:100570008504C204C18045BF5A89CDBFEFF25FCB6D
:10058000A13513054006EF10B02D371401408565E5
:1005900093850580130504C0EF10E056130540064F
:1005A000EF10102C93050020130504C0EF10A05588
:1005B00013054006EF10D02A454575331305800713
:1005C000EF10102A13056003793B014589331305A9
:1005D000A003513B1545253B1305200B69333145DD
:1005E0003D3331452D3301451D33130530030533AC
:1005F00013053003293B1305700BB5331305500366
:1006000039331305B00B8533130520030933130564
:10061000200C913B0545E5391305300CA9335545B0
:10062000FD311305400C813313050002CD31130554
:10063000600C153B3D45E1391305000D2D331305C5
:10064000400AF1311305100AD9311305000E213B80
:100650001305000D6D3921455D3939454D39254565
:100660007D3125456D3115455D311305100345314B
:100670001305300369391305800451395D4541394B
:100680005145713155456131130510034931130549
:100690004003B5391305100EF9311305000D8539E6
:1006A0002145B5313945A53125459531254585315A
:1006B0005545B139130510039939130530038139B4
:1006C00013058004A9315D4599315145893155455E
:1006D0003D39130510032539130540030D39130562
:1006E0001002513113059002BD3913054006EF1079
:1006F000301701479306000F1306000F814501458F
:100700002135014581BE9307000F63C8A70263C668
:10071000B702EFF2FFB14205C2054181C181938664
:1007200015009307150013170601C206139607015B
:100730004183C1824182C93B31BE8280EFF2DFAC8E
:100740003304A6409357F4413D8C4111AA892E8968
:10075000B28A1D8CFD5B6353C500854BB384264173
:1007600093D7F441BD8C9D8C330C9040054B634373
:10077000D9007D5B330A94403A86CA854E8536C6D9
:100780003AC451372247B246639459016302D902F1
:1007900093171A0063C98701638C5901330A9A4081
:1007A000DE99E34BF4FC6305D900229A5A99E9B724
:1007B00041016FF0FFA8EFF2BFA79384C18203A9A4
:1007C00004001308C00433080903938841894111C8
:1007D0003EC60509338408012310A40013058800D0
:1007E0002311B4002312C4002313D400BA85469504
:1007F000EF50405FB24723A024013CC441016FF099
:100800007FA5EFF25FA113874189B784010023A27E
:10081000E182BD6793870735138704A581460146AA
:10082000B945594523A601827937CD679387077566
:10083000138704A581460546C1455545AD3F9D67D3
:1008400093870735138704A581460946BD4555455D
:100850009D37AD6793870735138704A581460D46FD
:10086000C1455545893FC967938707F5138704A597
:10087000814601469D4531453D3FD9679387071520
:10088000138704A581460546A14531452D37A96743
:10089000938707D5138704A581460946A1452D45B1
:1008A000193FB967938707D5138704A581460D467D
:1008B000A5452D4509371384418901499389C18292
:1008C00083AA0900634A5901C167FD1723ACF1806F
:1008D00023A401826FF07F970509A2844A8A639559
:1008E0004A011304C404E9BF83D7C40403570400B6
:1008F0009384C40463F6E7021306C004A28513853B
:100900008184EF50803A1306C004A6852285EF50FB
:10091000C0391306C004938581842685EF50E038E2
:10092000050A75BF63530500014583A7C18263446F
:10093000F5001385F7FF9307C0043305F50293878D
:1009400041893E9523A2A182828003A5C18293861C
:10095000418981471387418963D6A70203D80600DE
:10096000634EB80003D84600631AC8009306C0045B
:10097000B387D702BA9723A2F18282808507938634
:10098000C604D9BF9307F5FFD5B7EFF27F8783A7DA
:1009900041822A89AE8983D4070003D42700420507
:1009A000C205328A4181C1811306F4FF9386F4FFA8
:1009B00083D767002A96AE964206C206411141824D
:1009C000C182938A4182ADE3338A4403EFF03F9CB6
:1009D000014DEFF01FAC414B060A63459D04EFF05B
:1009E000FFAC4A9423AE818023A0318341016FF094
:1009F000FF8483A70A0033079B41BC47D29783D764
:100A00000700B3D7E740858B99CB03D58181EFF001
:100A10009FAB850CE3CF8CFC050D090A7DBF03D588
:100A20008182F5B7814CFDB7EFF07F96EFF07FA69E
:100A300013061A0033068602014BC14C93171600A9
:100A40003EC6E35E9BF8B38B6C418547B39B770151
:100A5000324C014A05A083A60A00B446E29683D62A
:100A6000E6FFB3F6760199CA03D58181EFF0BFA501
:100A7000050A791CE3418AFE050BE1B703D58182A3
:100A8000F5B7EFF2EFFA9307F00763C8C700E16725
:100A900093870795B29703C60700C53D6FF08FFB9C
:100AA000EFF26FF7AA842E89328423ACD1808307BA
:100AB00004000346040099E36FF02FF92685CA85E8
:100AC000E93583A74182050483D72700BE94C5B7C3
:100AD000EFF26FF4AA842E89328423ACD18083078D
:100AE00004000346040099E36FF02FF62685CA85BB
:100AF000493F83A74182050483D72700BE94C5B729
:100B000023AEA18023A0B1828280EFF26FF2EF507A
:100B1000802E83A7418283D727003385A7026FF0F9
:100B20006FF3EFF2EFF0896741119387C78C2312BF
:100B3000F1003715014089473EC44C0093078004FB
:100B4000130505803EC6EF00706F41016FF08FF016
:100B5000EFF20FEE3715014013050580EF00307AF4
:100B600089679387C78C1345F5FF7D8D42054181C9
:100B70006FF04FEEEFF2CFEB01111306000281454B
:100B80000A85EFF0EFED854513050020EF10A01664
:100B9000116537240140EF10000413050440EF00F5
:100BA000D034B7070E003EC68A858547130504403A
:100BB000230AF10002C002C202C402C8EF00F036EC
:100BC000854513050440EF00D03B814513050440E3
:100BD000EF00904E13050440EF00B03B9304044037
:100BE0002685EF00B03B6DFD13050440372401401E
:100BF000EF00503B930404402685EF00503B6DFD11
:100C000013050440EF00D04C2398A18285451305BD
:100C10000440EF00704A0545EF00704705616FF032
:100C20006FE3EFF2EFE0372401409375F50F8D4647
:100C3000054613050440EF0090398545130504402F
:100C4000EF0070379304044089452685EF00304655
:100C500065DD13050440EF001043520551816FF02C
:100C60006FDFEFF2EFDC41112A89014481446319FF
:100C7000B40033D584024101420541816FF08FDD1C
:100C80004A8505042EC64204693FAA944180B245B4
:100C9000F9BFEFF2EFD90111AA842E8409458545E9
:100CA00002CA02CC231E010002C602C8EF10800651
:100CB000231A8100370400404C0813050440231C0C
:100CC0009100231D0100231B0100EF1000110546B8
:100CD000854513050440EF10001E9307D01223161C
:100CE000F10089472307F100680085473EC8EF00FF
:100CF0001063854513050440EF10201AB7E700E0A4
:100D0000096723A2E71005616FF0CFD4EFF24FD24D
:100D100041118545114502C202C402C6EF00B07DF3
:100D2000E1772312F10037150140C1473EC64C0060
:100D30008D47130505803EC4EF00505041016FF010
:100D40006FD1EFF2EFCE03C721839387218311CFB9
:100D50000147014637150140A16513050580238031
:100D6000E700EF00D05A6FF0EFCE05470546DDB73C
:100D7000411122C637040040854513050440EF1099
:100D8000E01405C5130504408545EF10E01503A7E1
:100D900041839307401F1384418363D5E7002320D9
:100DA000040045371C4085071CC0324441017300D4
:100DB000203089810D8296050D81D18D2E054D8DB6
:100DC000420541818280EFF2AFC379712AC609459D
:100DD00032CCAE8BEFF01FB5624663080610378742
:100DE0000100032407A637870100832D47A6378714
:100DF0000100832C87A6378701008327C7A6416A95
:100E000013099002014B294C9544378D0100930939
:100E100080077D1A3ECC37050080218DEF403040A1
:100E2000EF10C03B2AC822852ECAEF40503FEF107A
:100E300040324248D248AE862A86C6854285EF2097
:100E4000907FEF4090481547AA8AD1466394E4000A
:100E50008144E54629476314EC045A8693050DA89E
:100E60004810EF40F0734810EFF03FCA2A8CEE852F
:100E70005685EF406072EF40301B0947B347EC02E4
:100E80003385A940FD46501093053002130B4B06E5
:100E9000014C1D8D6D15EFF0BFC393063002130595
:100EA000600E158D36CEEF40501ED685EF40C06ED9
:100EB000EF4090173386A940E685568532C8EF404B
:100EC000A06DEF407016F246424652878145338549
:100ED000A940EFF0BF86E24522857D19EF4020351D
:100EE0008504050C2A84E31809F23245EF403033BB
:100EF000B787010003A687A783A6C7A7EF30F02B0B
:100F0000EF40B03C2A8437050080218DEF4030311E
:100F1000EF10C02C2A892285AE89EF405030EF10A7
:100F200040232A86AE864A85CE85EF20D070EF40DA
:100F3000D039B787010083A507A7AA84EF40C06511
:100F4000EF40900EB787010083A547A72A84268526
:100F5000EF408064EF40500DAA84130580073306EC
:100F600095405E87018D9306600993052003EFF09D
:100F7000EFFC13059007330695405E8793066009E2
:100F800093052003018DEFF06FFB45616FF00FAB10
:100F9000EFF20FA75D71094502DE82C082C282C4F2
:100FA00082C6EF007037EF10A00513054006EF1062
:100FB000200B716513050520EF10E00D37040020AC
:100FC0008325040837850100130505ACEF4050590F
:100FD000892B8325040837850100130505ADEF40F3
:100FE00030586818EF005040F2553785010013055E
:100FF00005AEEF40F056864537850100130585AFF5
:10100000EF4010569645378501001305C5B0EF40F7
:101010003055A64537850100130545B2EF405054C1
:10102000EFF0CFD5EFF09FCE832504088967938733
:101030000771B3D5F50225453789010037840100D2
:101040008D4B154CED5C130AF00E130B1003FD15C0
:10105000C205C181EFF0FFC301479306000F1306DD
:10106000000F81450145EFF02FCAEFF08FF9A14540
:101070000145EFF0FFA80546D145130509A5EFF09E
:10108000DF8C1305C4B3EFF05FA89307000F33851F
:10109000A74089473345F502C1669386068013064B
:1010A000C4B39305000AEFF0BF9F238901829384A4
:1010B00021838149139619003346760383CA0400BD
:1010C00093950A01C181338595031306C603420631
:1010D0004182B38585031305F50F42054181EFF089
:1010E0005FCD2A86B3055A414E858509EFF0AFE101
:1010F000E39249FD83C70400850793F7F70F238028
:10110000F400E378FBFA05469305007E1305000022
:10111000EFF07FCB138CC1B8EFF0DFA5EFF07FA02D
:101120009387C1B82380040093060C1E014793895E
:10113000C1B86396F61E01C7C1572380F400B78774
:10114000010003A8C7A983A787A9930C000042C682
:101150003EC4B787010003A847AA83A707AA814412
:1011600042CA3EC8B787010003A8C7AA83A787AAB7
:10117000668A42CE3ECCB787010003A847AB83A75F
:1011800007AB378D010042D23ED0B787010003A8DC
:10119000C7AB83A787AB42D63ED4EFF07F9BAA8A2A
:1011A00063090528EFF0DF9A63100518A1476394DF
:1011B000FA0093C414009306F00E01471306F00ED4
:1011C00081450145EFF04FB40546D145130509A50A
:1011D000EFF0AFF71305C4B3EFF03F93930A000F9E
:1011E0003385AA40894D3345B503416B93060B8087
:1011F0001306C4B39305200DEFF09F8A639B04127E
:101200009306800C01471306F00E81450145EFF06F
:10121000AFAF930DF00E9304F00F930BF00F8D46CC
:10122000B3879B40139B0701135B0B01814A139605
:101230001A003346D602DA8526851306C60342060F
:101240004182EFF01FB72A86EE855685EFF0AFCBCF
:10125000850A1308F00E8D469308D00BE3990AFD1A
:10126000ED14C204FD1DC180E39C1DFB05468145B4
:101270006685EFF05FB50546D145130509A5EFF08A
:10128000CFEC1305C4B3EFF05F889307000F3385ED
:10129000A74089473345F502C16693860680130649
:1012A000C4B39305000AEFF0AFFF01469305007E3B
:1012B0005285EFF05FB12945EF00905A9305007D0C
:1012C0000145EFF01F9AEF40A068EF4040750326FC
:1012D0008DA88326CDA8EF30C022B787010003A6D2
:1012E00007A983A647A9EF201035EF40007EAA8406
:1012F000EF40E07203268DA88326CDA8EF3080153D
:101300006356A000B787010083A447A85285014611
:101310008145D28CEFF03FAB268A8144BDBD23903E
:1013200007000547890731B513054006EF00505304
:1013300095BD9306800C1307FBFF1306F00E814545
:101340000145EFF06F9C0546D145130509A5EFF067
:10135000CFDF1305C4B3EFF04FFB3385AA4033450D
:10136000B50393060B801306C4B39305200DEFF06D
:101370002FF32945EF00D04EE28A8144930DE00E11
:101380001305800CEF00704A2685EF30306322464B
:10139000B2468504890AEF30C0164246D246EF2095
:1013A0009029EF00B0636246F246EF308015025696
:1013B0009256EF2040352256B256EF308014EF306F
:1013C000305A239FAAFEE39DB4FB41679305700C3E
:1013D00001457D179306700C1306F00EEFF00FB663
:1013E00083D509009307400BE28AB385F5020545D2
:1013F0009308400B9307600CB18583D42A00930DAA
:101400001500B385B740B38414037D476E86890AFF
:10141000B184B3869740EFF06FB21308E00EA68553
:101420006E859307600C9308400BE3980DFD85448F
:10143000ADB3E38C04E635BFB71702409843B70657
:10144000FFF041111367170098C3D8433706020015
:10145000758FD8C39843B706F7FEFD16758F98C3EE
:101460009843B706FCFFFD16758F98C3D843B7069F
:1014700081FFFD16758FD8C337079F0098C702C438
:1014800002C69843C166558F98C3B71602400567D8
:101490009C42F18F3EC6A24785073EC4B24781E712
:1014A000A247E397E7FEB71702409C431397E70074
:1014B0006357070685473EC632478547631FF704D3
:1014C000B7170240D843B706C1FFFD16D8C3D843AB
:1014D000D8C3D84313670740D8C3D843758FD8C340
:1014E000D843B7062900558FD8C39843B7060001E3
:1014F000558F98C3984393166700E3DD06FED843E3
:10150000B7160240719BD8C3D84313672700D8C3CE
:101510002147DC42B18BE39EE7FE4101828002C697
:1015200061BFB7160240DC42370700201146B18B7D
:10153000130707086385C70021466389C702B717E9
:101540007A00938707201CC3B7170240DC439183BE
:1015500093F6F700B707002093870700B69783C676
:1015600007001C43B3D7D7001CC38280DC42D4429F
:101570004166C983BD8BF18E890745466393C700D9
:10158000C94781EEB746024083A60680C18A89CE4C
:10159000B7167A009386062021A8B7160240D442D7
:1015A0001396E600E35606FEB7163D0093860690B6
:1015B000B387D70249BF01A001A001A001A001A0EB
:1015C00001A001A001A001A001A001A001A001A013
:1015D00001A001A001A001A001A001A001A001A003
:1015E00001A001A001A001A001A001A001A001A0F3
:1015F00001A001A001A001A001A001A001A001A0E3
:1016000001A001A001A001A001A001A001A001A0D2
:1016100001A001A001A001A001A001A001A001A0C2
:1016200001A001A001A001A001A001A001A001A0B2
:1016300001A001A001A001A001A001A001A001A0A2
:1016400001A001A001A001A001A001A001A001A092
:1016500001A001A001A001A001A001A001A001A082
:1016600097F1FF1F938101221771002013018199C7
:10167000177501001305C5A097F5FF1F9385859881
:101680001386818163FAC5008322050023A05500DB
:1016900011059105E3EAC5FE138581819385C1D6C5
:1016A0006377B500232005001105E36DB5FEFD420B
:1016B000739002BCAD4273904280B7620000938287
:1016C000820873A0023097F2FFFF9382229793E281
:1016D000320073905230EFF03FD6970200009382B1
:1016E000628B7390123473002030EFE27FB4B7271F
:1016F000014093870740631CF500854513050020D2
:101700000D2D8145130500202D256FE0BFB4B7379F
:10171000014093870780E31AF5FE854513050040D5
:10172000092D814513050040C5B75C413707F1E03D
:101730001307F7EF944D7D8F9C41D58FD44DD58FF6
:10174000D441A206D58FD98F5CC11C4537F7F1FF74
:101750001307D77FD4457D8F9C49D58F9445860646
:10176000D58FD98F1CC55C55370710FF7D177D8F2E
:1017700083C74501FD1793F7F70FD207D98F5CD5C3
:1017800082801C4589C593E717001CC58280F99BA0
:10179000EDBF1C4593E787001CC5828008450D817D
:1017A000058982801C4593E747001CC58280084557
:1017B0000981058982801C4591C537075000D98F62
:1017C0001CC582803707B0FF7D17F98FD5BFA547AD
:1017D00063F7B7048D47138765FF3307F7020328C4
:1017E000C5009D47B397E70093C7F7FFB3F707011D
:1017F000B396E600DD8E54C5994763E3C704954769
:101800007D163306F6025859FD47B397C70093C7B4
:10181000F7FFF98F3396C5005D8E50D982800D4752
:101820003387E502032805019D47B397E70093C777
:10183000F7FFB3F70701B396E600DD8E14C96DBF5D
:10184000B14763E2C702954765163306F602185999
:10185000FD47B397C70093C7F7FFF98F3396C500CD
:101860005D8E10D9828095474D163306F602585585
:10187000FD47B397C70093C7F7FFF98FB395C5002E
:10188000DD8D4CD582806845420541818280B72735
:10189000014093870740984711C5B7068000558FD0
:1018A00098C78280B70680FFFD16758FD5BF0841A7
:1018B0006D8D3335A00082805C4191C537070004EF
:1018C000D98F5CC18280370700FC7D17F98FD5BFA7
:1018D000EFE21F9601112A8423040100A5448347E7
:1018E000810063FFF40423040100A54621468347D9
:1018F000810063F7F60823150100230401009546D3
:101900008347810063F5F6100357A1008357A100B8
:1019100099460D46B3F7D702056513050580B3D781
:10192000C7023357D702BA97C207C1832315F10004
:101930008357A10005611D8D420541856FE09F9190
:101940001C4493E787001CC42285EFF03FE56DFD42
:101950001C4493E747001CC42285EFF05FE56DFD52
:1019600078448347810014108607B6972396E7FED4
:1019700083478100850793F7F70F2304F10085B7AC
:10198000A304010083479100637AF6008347810036
:10199000850793F7F70F2304F10091BF03479100E8
:1019A000834791000C100607850786072E97AE9790
:1019B0000357C7FE83D7C7FE63F3E704834791004D
:1019C0008607AE9783D7C7FE2315F10083479100A2
:1019D0000347910085078607AE9783D5C7FE931707
:1019E00017001810BA972396B7FE83479100035744
:1019F000A1000C1085078607AE972396E7FE834764
:101A00009100850793F7F70FA304F100A5BF834763
:101A1000810010100357A10089078607B29783D76A
:101A2000C7FEBA97C207C1832315F100834781001F
:101A3000850793F7F70F2304F100D9B59C4513F7F9
:101A4000070113F8F70001C7D8413368E80083D5D0
:101A5000050013F7F50F39C318418146854E3D4FF8
:101A6000930F800293028004214E3396DE00B3F878
:101A7000C500631116039398260033131F01134307
:101A8000F3FF3377E300B318180133E7E800639FEF
:101A9000F70550C98506E39AC6FD18C11307F00F74
:101AA0006375B70454412146854E3D4F930F800224
:101AB00093028004414EB398CE0033F71501639230
:101AC000E8021317260001173313EF001343F3FF47
:101AD000B376D3003317E800D98E639DF701232A2C
:101AE00015010506E319C6FD54C18280E39457FA37
:101AF00010C94DB7E39757FE23281501DDB70845F8
:101B00004205418182800CC982804CC9828019C201
:101B10000CC982804CC9828023ACA18282809387C9
:101B2000818394430347050089E683472500920794
:101B300031A8944305466391C604834725000346B4
:101B4000150092076314D60093E707F8B7E600E0A4
:101B500093F7F70FBA962380F640854693575700C0
:101B60003397E6005441ADC6938707048A07B7E66A
:101B700000E0B69798C382808C4389466393D50270
:101B800083461500834725006365D6008A06B6970D
:101B900079BF9386E6038A06B69793F7F70F920705
:101BA00065B790438D46631ED60083461500834774
:101BB00025006364D6008606D9BF9386C6078606CD
:101BC000E1BF94439147E39AF6F88347150085B740
:101BD0009387070661BFB7160240DC4251777D1735
:101BE000F98F5D8DC8C28280371702405C439146F1
:101BF000B18B6385D700A1466386D706B7177A00F5
:101C0000938707201CC1371602405C42370700202B
:101C1000130707019183BD8BBA9783C607001C4148
:101C2000B3D7D7005CC15442A1829D8ABA9683C6BD
:101C30000600B3D6D70014C55442AD829D8A3697AC
:101C400003470700B3D7E7005CC558423983937652
:101C5000370013874180369703470700B3D7E70261
:101C60001CC982805C4354434167C983F98E37F7AE
:101C7000FF1F0327C770BD8B890713161701634821
:101C80000600454601476392C702C94739A809477C
:101C90006389E7023D476388E70241476388E702BB
:101CA000454601476393C700C14785E6B7460240F2
:101CB00083A60680C18A8DC6B7167A009386062051
:101CC00025A00147D9B70547B547C5B70147BD4767
:101CD000E9BFB7160240D4421396E600E35E06FC65
:101CE000B7163D0093860690B387D7021CC101DF6B
:101CF0001C41858301BF99C5371702401C4F5D8D7C
:101D000008CF8280B7170240984F1345F5FF798DB1
:101D100088CF828099C5371702405C4F5D8D48CFD0
:101D20008280B7170240D84F1345F5FF798DC8CF91
:101D3000828099C5371702405C475D8D48C7828015
:101D4000B7170240D8471345F5FF798DC8C7828081
:101D5000035705008D679387070483D625007D8F81
:101D600083D70500D58F83D64500D58F83D66500F0
:101D7000D58F83D68500D58F83D6A500D58F83D602
:101D8000C500D58F83D6E500D58FD98F2310F500F8
:101D90000357C501FD779387F77FF98F231EF50061
:101DA00083D705012318F50082808357050091C56C
:101DB00093E707042310F5008280C207C18393F7DD
:101DC000F7FBC207C183FDB72316B5008280035518
:101DD00085006D8D3335A00082808357050037372D
:101DE0000140930607C0C207C1836300D504B7064C
:101DF0000040630CD502938606406308D502B716EF
:101E00000040138606806302C502938606C0630EF7
:101E1000D50013070740630AE500375701409306D2
:101E200007C06304D5006317E50003D7250093F7C7
:101E3000F7F8D98F37170040630DE5001307074007
:101E40006309E50093F7F7CF03D76500C207C183A5
:101E5000D98F2310F50083D745002316F50283D7C9
:101E600005002314F502B7370140138707C0630E3E
:101E7000E50093870740630AF500B75701401387D1
:101E800007C06304E5006316F50083C785002318C7
:101E9000F5028547231AF50082808357050091C516
:101EA00093E717002310F5008280C207C183F99BD6
:101EB000C207C183C5BF8357C50009C6DD8D231680
:101EC000B500828093C5F5FFFD8DD5BF8357050111
:101ED0000355C500ED8F4205418189C76D8D3335AE
:101EE000A00082800145828093C5F5FFC205C181B3
:101EF0002318B5008280EFE2AFB383560501F57772
:101F0000FD17F58F83D6650003D7C5007971D58F8E
:101F10002318F5008356C500FD779387379FF58F0B
:101F200083D645002A842EC6D58F83D68500D58FCB
:101F300083D6A500D58F2316F50083574501C20728
:101F4000C18393F7F7CFD98F231AF5006808EFF014
:101F5000BFC9B747014093870780B245631DF404AA
:101F6000A2578356C4006547B387E702C206C186FD
:101F7000984163D4060406070356C4004206B3D74B
:101F8000E702130740064186B3D6E702B3F7E7023C
:101F90009206635606028E0793872703B3D7E7029C
:101FA00013F77700B367D700C207C1832314F40087
:101FB00045616FE02FAA92576DB70A0775BF920768
:101FC00093872703B3D7E702BD8BD58FF1BF81C9B4
:101FD0008357C5000967D98F2316F5008280035700
:101FE000C500F977FD17F98FC5BF93F5F51F2312CB
:101FF000B5008280035505006D8D3335A0008280C9
:10200000B707002083A7070837177A0013070720B0
:10201000B3D7E70293F7F70F238FF1821307803EC0
:10202000B387E702239EF1828280B7F700E0D843AE
:102030008146799BD8C303C7E1833306A70290CBBF
:10204000D4CB98431367070198C3984313671702CB
:1020500098C3D843058B75DF9843799B98C38280DA
:10206000B7F700E0D8438146799BD8C303D7C18333
:102070003306A70290CBD4CB98431367070198C3CC
:1020800098431367170298C3D843058B75DF9843AD
:10209000799B98C38280EFE2AF992A841165011180
:1020A00085451105EFF03FC5930700202312F1008D
:1020B000371501408D473EC44C00E14713050580AC
:1020C0003EC6EFF0BF9722C837440140B70708006B
:1020D0000C08130504803ECC02CA231E0100EFF059
:1020E0009FE1854513050480DD3505616FE08F961E
:1020F000EFE26F92B7440140AE8932890144938484
:102100000480634524014A856FE02F949305000401
:102110002685CD3565DDB387890083850700268553
:102120000504C205C181EFF05FECE1BF1387818038
:102130001C439386C1D63E95636BD500B7860020BD
:102140009386068063E5A60008C33E858280FD571E
:10215000EDBF011122CC370400809347F4FF3727ED
:10216000E93F06CEED8F1307B71F6350F70437071B
:10217000F07F63CAE700AE862A86EF201004F240A3
:102180006244056182800A86CD200D8985476305FA
:10219000F50289472246B246630DF5021DC5024588
:1021A00092450547EF106012D9BF014681460523CD
:1021B000F2406244056182802246B2460245924561
:1021C0000547EF108010A18D5DBF024592450123A8
:1021D0007DB702459245E529A18D55B7011122CC65
:1021E000370400809347F4FF3727E93F06CEED8F91
:1021F0001307B71F635FF7023707F07F63CAE70073
:10220000AE862A86EF20607BF240624405618280C0
:102210000A86A1280D8985476306F502894722466B
:10222000B246630DF5020DC5024592454D21A18DC3
:10223000E1BF014701468146EF102009F2406244A8
:10224000056182802246B2460245924549216DBF12
:10225000024592450547EF1040077DB7024592457C
:102260000547EF108006A18D45B75971A2D43727D5
:10227000E93F1394150086D6A6D2CAD0CECED2CCD2
:10228000D6CADAC8DEC6E2C4E6C2EAC06EDE05809F
:102290001307B71F635B871437E702401307B7972D
:1022A000B289634F8706976701009387A78A904397
:1022B000D4436356B03AEF204070B727F93F938775
:1022C000B71F2A8AAE8A6308F41417640100130446
:1022D000E488104054408544EF20206E2A86AE8664
:1022E00023A0A90023A2B9005285D685EF20E06C77
:1022F00010405440EF20606C23A4A90023A6B9002D
:10230000B6502654268506599654F649664AD64A4A
:10231000464BB64B264C964C064DF25D656182806D
:10232000372739411307B71F2E896358871037079E
:10233000F07F6354E40C135A4441130AAABE931766
:102340004A011D8CA285AA84EF20105BEF20106744
:102350002A87AE873A86BE862685A2853ACC3ECEAF
:102360009764010093840483EF2020659040D4405B
:10237000EF202019AE8B2A8BEF2010582A84EF20F3
:10238000F0632A87AE872A86AE865A85DE853AD0E4
:102390003ED2EF2080629040D440EF2080168146EC
:1023A00001462AD42ED6EF204004B336800085069D
:1023B000631705229767010093874786094752866E
:1023C000CE852808C923AA84E35C09F203A7490043
:1023D00083A7C900B7060080358FB58F23A2E90017
:1023E00023A6F900B304A04021BF08C24CC2232495
:1023F000060023260600814421B72A86AE86EF20F8
:10240000C05B23A4A90023A6B90023A0A90023A28E
:10241000B9008144F5B5975701009387A77490439D
:10242000D44317540100130464748544EF20E0582A
:102430002A8AAE8A1040544045B5EF1020029757C3
:102440000100938727739043D4432A8AAE8AEF20F2
:10245000400B97570100938767729043D443EF1066
:10246000802AEF207049AA84EF2050559757010029
:102470009387476E9043D4432A8BAE8BEF2060083E
:102480002A86AE865285D685EF20205397570100C5
:102490009387C76C9043D4432A8DAE8C5A85DE85D2
:1024A000EF2020062A8AAE8AFD476A85E685528695
:1024B000D68663C79702EF2040509387F4FF1397A7
:1024C0002700975701009387676DBA979C43AA8DA1
:1024D0002E8C638B870023A0A90023A2B90025A01E
:1024E000EF20A04DAA8D2E8C93574C0113584441D8
:1024F00093F7F77FB307F840C14663C6F60423A0FD
:10250000B90123A289016E86E2866A85E685EF20FD
:10251000C04A5286D686EF20404A23A4A90023A6AB
:10252000B900E35F09DCB707008033CC8701BD8DBC
:1025300023A0B90123A2890123A4A90023A6B900DD
:10254000B304904075BB975701009387A7619043F0
:10255000D4435A85DE8542C4EF10B07A2A8AAE8A07
:102560002A86AE866A85E685EF2020452E8C2A864F
:10257000AE862A842EC66A85E685EF200044528600
:10258000D686EF208043975701009387275E9043BC
:10259000D4432A8AAE8A5A85DE85EF109076528619
:1025A000D686EF2080412A86AE862A8AAE8A228588
:1025B000E285EF208040224893D7450193F7F77FCB
:1025C0003308F84093071003E28CAA8D2E8C63CA5F
:1025D000070123A0A90023A2B900228D2DB78D46A3
:1025E000D1BB975701009387E7599043D4435A854D
:1025F000DE85EF101071324C2A8AAE8A2A86AE86AA
:102600002285E285EF20603B2A86AE862A8DAE8C3D
:102610002285E285EF20603A5286D686EF20E039A7
:1026200097570100938787569043D4432A8AAE8AEE
:102630005A85DE85EF10F06C5286D686EF20E037A3
:102640002A86AE862A8AAE8A6A85E685EF20E0363B
:10265000AA8D2E8C23A0A90023A2B9006DB5EF107E
:10266000800AB727F93F9387B71F2A8AAE8A630E7D
:10267000F402175401001304644E10405440FD54FA
:10268000EF1060082A86AE8623A0A90023A2B90015
:102690005285D685EF20603210405440EF10A006DE
:1026A00023A4A90023A6B900A1B9975701009387D5
:1026B000674B9043D443175401001304244BFD543B
:1026C000EF1060042A8AAE8A1040544055BF397119
:1026D0005AD0139B15004AD84ED662CC66CA06DE85
:1026E00022DC26DA52D456D25ECE6AC86EC6135B9E
:1026F0001B00B707403E2E8CAA8C3289B6896355E1
:10270000FB10EF20701F630905266686E28666854A
:10271000E285EF10105F975701009387A761904300
:10272000D4432A84AE84EF10D05D9757010093877D
:10273000E7609043D443EF00107D2286A686EF1019
:10274000505C975701009387E75F9043D443EF2095
:10275000C0262286A686EF10D05A9757010093878D
:10276000E75E9043D443EF00107A2286A686EF10EE
:102770005059975701009387E75D9043D443EF206A
:10278000C0232286A686EF10D05797570100938763
:10279000E75C9043D443EF0010772286A686EF10C3
:1027A00050562A8AAE8A975701009387273D904357
:1027B000D4432285A685EF10D0542A8BAE8B528647
:1027C000D6862285A685EF10D0532A84AE844A8609
:1027D000CE866685E285EF10D0522A86AE862285A7
:1027E000A685EF20801D2A86AE865A85DE85EF20DD
:1027F000C01C975701009387E72B2A86AE86884333
:10280000CC43EF20801B0DAA2A86AE86EF10704FB6
:1028100097570100938707529043D4432A84AE848C
:10282000EF10304E97570100938747519043D443A0
:10283000EF00706D2286A686EF10B04C975701000E
:10284000938747509043D443EF2020172286A686D3
:10285000EF10304B975701009387474F9043D44375
:10286000EF00706A2286A686EF10B04997570100E4
:102870009387474E9043D443EF2020142286A686A8
:10288000EF103048975701009387474D9043D4434A
:10289000EF0070672286A686EF10B046B737D33FA9
:1028A000938727332A8AAE8AE3DF67EFB707E93FCA
:1028B00063C3670B175701001307C71FB707E0FF74
:1028C00008434C433E9B8147DA863E863E8DEF208F
:1028D000C00EDA8DAE8B2A8B975701009387072A9B
:1028E0009043D4432285A685EF10B0416A86EE86D8
:1028F000EF20A00C2A8DAE8D5286D6862285A68525
:10290000EF1030402A84AE844A86CE866685E28502
:10291000EF10303F2A86AE862285A685EF20E0099B
:102920002A86AE866A85EE85EF2020092A86AE8645
:102930005A85DE85EF206008F2506254D254425925
:10294000B259225A925A025BF24B624CD24C424D1F
:10295000B24D21618280975701009387A73C03AB5A
:10296000070083AB4700975701009387273C03ADCF
:10297000070083AD47008DB79757010093878713F2
:102980008843CC4355BF130101D5232E3129B68985
:10299000131827003ADC3ED417570100130787426B
:1029A0009387F9FF232EB12742972326112A232448
:1029B000812A2322912A2320212B232C4129232AD7
:1029C000512923286129232671292324812923229F
:1029D00091292320A129B1562AD22EDA3EC8832D6F
:1029E0000700634FD67E1307D6FFE147B347F702D0
:1029F0003ED0850713972700998F8E0782559386BF
:102A0000F9FF3387DD00B2973384D54013091700EF
:102A10003ECA0409229963430702225A93172400ED
:102A2000D29701458145634504008843EF20007932
:102A300088C0CCC00504A104E31224FF63C40D06C2
:102A4000C24B125D1C0913993B0013048900139AB1
:102A50003D003E99BC0B840B3E9A6A944A8BEA8AED
:102A6000014C814C63C80B0203260B0083264B00EC
:102A700003A50A0083A54A00A10A611BEF10702874
:102A80002A86AE866285E685EF00F0472A8CAE8CFA
:102A9000E39C8AFC23A0840123A29401A1042109C0
:102AA000E39E44FB13972D007018930687FF330CA9
:102AB000E600980036973AD8125713943900938756
:102AC000FDFF3A94370700207D173ACC3707800086
:102AD0007D178A073ADE981CBA97EE84130D011D04
:102AE0003ED66ECE93973400981CBA9703AA07F689
:102AF00083AA47F663569008E24793090104338995
:102B0000F400975701009387672A03A847009C4366
:102B10000E0942C23EC0975701009387A70703A83A
:102B200047009C436A9942C63EC411A03E890246B2
:102B300092465285D685EF10D01CEF20E05BEF2047
:102B4000E0672246B2462A8BAE8BEF10901B2A8696
:102B5000AE865285D685EF105066EF20E0590326E9
:102B600009008326490023A0A900DE855A85EF00CD
:102B700090392A8AAE8A930789FF9109E3182DFBC1
:102B8000524BD68552855A86EF00B02297570100E6
:102B9000938747229043D4432A89AE89EF10701659
:102BA000EF00300C97570100938747219043D4439F
:102BB000EF1030152A86AE864A85CE85EF10F05F7D
:102BC000AE892A89EF204053AA8AEF20205F2A8607
:102BD000AE864A85CE85EF10505E2A89AE8963574E
:102BE00060139387F4FF981C8A07BA9703AA07DD3E
:102BF000614733076741B356EA403397E60033072E
:102C0000EA405D4A330A6A4123A8E7DC335A474168
:102C1000B69A634B4011014681464A85CE85EF1036
:102C2000C07C6318051AF2471386F4FF634FF60061
:102C3000939724009800F117BA9701479443F1172E
:102C4000558FE39D87FF631D0728B25783A707DDD4
:102C500063930728C2570547F117D4430507EDDEF4
:102C600093871400BE8ABA944247925D62C03309CA
:102C7000F7000257330AF70062478E070A0A3A99AB
:102C800022570E09B309FD001C093A9A3E99032503
:102C90000A00EF20A052C2472324A9002326B9002E
:102CA00063C90704CA8B6E8B014C814C31A003A50C
:102CB0000B0083A54B00E11B03260B0083264B0072
:102CC000210BEF1010042A86AE866285E685EF00A0
:102CD00090232A8CAE8CE31C8BFC23A0890123A2B9
:102CE0009901850A110AA1092109E3D254FB024C7A
:102CF000D5BB014C814C23A0890123A29901850AEF
:102D0000110AA1092109E3D454F9D5B7D247639830
:102D100007189387F4FF8A07981CBA9703AA07DD60
:102D2000135A7A41E35940EF850A635F904A064897
:102D3000854763150812638EF400D400054703A885
:102D40000600930717009106631B08103E87E3985F
:102D5000F4FE52476353E00285476307F74689470D
:102D6000631DF7009387F4FF981C8A07BA9703A79F
:102D700007DD2A07298323A8E7DC8947E31DFAE852
:102D800097570100938707D38843CC434A86CE8662
:102D900042C0EF10904202482A89AE89E30D08E64E
:102DA00097570100938707D18843CC435246EF00E1
:102DB00050002A86AE864A85CE85EF1010402A89BB
:102DC000AE89014681464A85CE85EF100062E30C4C
:102DD00005E4524D4A85CE853306A041F24DEF0001
:102DE000407D975701009387E7DA03A9070083A97D
:102DF00047002A8C4A86CE86AE8CEF10A0656340D1
:102E0000054617570100130767FA104354436285BC
:102E1000E685EF10006FEF20202E9C1C13942400F9
:102E20003E94AA8BEF2080394A86CE86EF10606DE3
:102E30002A86AE866285E685EF103038EF20C02BFB
:102E4000138B1400981C93172B00BA972328A4DC2B
:102E500013078D013ACA23A877DD55A801470A0751
:102E600037060001941C369733080641232807DDF6
:102E700063D597028A073387F6008C009396240067
:102E8000032707DDAE97AE967D1611A09843330752
:102E9000E64098C39107E39BD7FE05485DBD975771
:102EA00001009387A7CD9043D443014AEF10805A85
:102EB000E34305D6850A094AE34B90E6975701009C
:102EC000938747BF8843CC434A86CE86EF10F02EC7
:102ED0002A89AE8989B393871400BE8ABE8469B3F8
:102EE000981C93172600BA97524783A707DDF24D27
:102EF00021173ACA328B81EF93972400E11794008F
:102F0000B697F117D4437D1B2117E5DE3ACA9757D0
:102F10000100938727BA8843CC435246EF0060698B
:102F20002A84AE8463400B3893173B003E87940B92
:102F3000B38BE6003EC417570100130727E793172A
:102F40002B009400B38CF6005E8C032907008329C4
:102F5000470011A0BE8C03A50C00611CEF200026C9
:102F60002286A686EF10E0592324AC002326BC005D
:102F70002285A6854A86CE86EF10A05898002A841E
:102F8000AE849387CCFFE31797FD1C1A3EC0EE8CEE
:102F9000BE84014463C80C0697570100938787E0FD
:102FA000175C0100130C0CDCDE898843CC43014D17
:102FB000814D014909A8210CA10963472403032578
:102FC0000C0083254C0003A6090083A649000509CF
:102FD000EF1020532A86AE866A85EE85EF00A07238
:102FE0002A8DAE8DE3D92CFD23A0A40123A2B40128
:102FF000980B0504A10493878BFF63027703BE8BB4
:10300000E3DC0CF8014D814D23A0A40123A2B401FF
:10301000980B0504A10493878BFFE31277FF625797
:10302000894763C7E7086343E01C21E7A2470244DE
:1030300001458145B30CF40003A60C0083A64C00A7
:10304000EF00606C93878CFF630D9401BE8C03A628
:103050000C0083A64C00EF00006B93878CFFE317F6
:1030600094FF63050A00B7070080BD8DD25688C261
:10307000CCC28320C12A0324812A13F57A00832439
:10308000412A0329012A8329C129032A8129832A64
:103090004129032B0129832BC128032C8128832C50
:1030A0004128032D0128832DC1271301012B828084
:1030B00062578D47E31FF7FA63566021931B3B006D
:1030C0009C1CDE979309011313848BFF4EC083ADC4
:1030D00007EC03AD47EC4E9411A03E84032C040092
:1030E000832C44006E86EA866285E685292D2A892E
:1030F000AE842A86AE866285E685EF10100C6E8659
:10310000EA86112508C44CC42320240144C0930737
:1031100084FFCA8D268DE39289FC854763D4671BA3
:1031200013143B00024B9C1CBE9B611403AD0BECC3
:10313000B3048B0083AB4BEC11A0BE8403AC040042
:1031400083AC44006A86DE866285E6856D2BAA899B
:103150002E892A86AE866285E685EF1010066A867D
:10316000DE86552388C4CCC423A0340123A22401C5
:10317000938784FF4E8DCA8BE311FBFC82472104A9
:1031800001453389870081450326090083264900CC
:103190006119952BE39A24FF032801130327411398
:1031A000032681138327C11363170A0CBE88D257E5
:1031B0004283328823A06700D8C323A4070123A633
:1031C000170188CBCCCB75B59387F4FF981C8A0781
:1031D000BA9703A707DDF256758F23A8E7DC71BE07
:1031E000A15702D06FF09F810148A5B60247A247C0
:1031F00001448144B30CF700A2873A8411A0BA8C31
:1032000003A60C0083A64C002685BE85ED291387F6
:103210008CFFAA84AE87E31494FF2E840325011348
:10322000832541132686A286EF10207963130A06B0
:10323000D25684C2C0C263506003241A0544904031
:10324000D4400504A104C121E35B8BFE63050A00A1
:10325000B7070080BD8DD25688C6CCC619BD9C1C50
:10326000139424006285E6853E94EF10F0682328CD
:10327000A4DC268B69B9B7060080358FB58FAD8E7B
:10328000D25523A00501D8C190C5DCC588C9D4C9D1
:10329000CDB3B70700803D8CD25784C3C0C3E34E83
:1032A00060F97DB762578947E3C4E7E06349E0000E
:1032B00001458145E31F07DAE30A0ADA6DB3814469
:1032C0000144A9BF01458145C1BD397193971500DE
:1032D00022DC26DA52D456D262CC06DE4AD84ED64A
:1032E0005AD05ECE66CA6AC86EC685833708403E2D
:1032F0002E84AA84328AB68A3A8C63D70701EF10EB
:10330000B05F2687A28761C12686A2862685A28510
:10331000EF10201F2A89AE892A86AE862685A285CF
:10332000EF10201E975701009387C7AA9043D443FC
:103330002A8BAE8B4A85CE85EF10A01C97570100D3
:103340009387C7A99043D443EF1020674A86CE865F
:10335000EF10201B975701009387C7A89043D443D1
:103360005D264A86CE86EF10C019975701009387D5
:10337000E7A79043D443EF1040644A86CE86EF100F
:103380004018975701009387E7A69043D443A52E92
:103390002A8DAE8D631A0C042A86AE864A85CE85A8
:1033A000EF10201697570100938747A59043D44309
:1033B000EF10A0605A86DE86EF10A0142686A28643
:1033C00099262A87AE87F2506254D2544259B25994
:1033D000225A925A025BF24B624CD24C424DB24D91
:1033E0003A85BE85216182809747010093870779DE
:1033F0009043D4435285D685EF10A0102A8CAE8C12
:103400006A86EE865A85DE85EF10A00F2A86AE8684
:103410006285E685EF10605A4A86CE86EF10600E10
:103420005286D686EF106059975701009387079D03
:103430009043D4432A89AE895A85DE85EF10600C0B
:103440002A86AE864A85CE857D2C2A86AE8626853E
:10345000A285EF1080562A87AE87B5B7860585818D
:10346000828093D74541011193F7F77F22CC26CA7A
:103470004AC84EC652C406CE56C25AC0938417C01C
:103480004D472E84AA892E892A8A6348970863C4E7
:103490000406370B1000930AFBFFB3DA9A40B3F728
:1034A000BA00C98FAA862E879DCB975701009387B4
:1034B00067959043D443812C01468146EF00907973
:1034C000635DA00063560400B3549B4033898400BD
:1034D00093CAFAFF33795901014AD2864A87F240EA
:1034E0006244D2444249B249224A924A024B36854A
:1034F000BA8505618280975701009387A790904312
:10350000D443112401468146EF00D074E357A0FC58
:1035100063430406014A0149C9B713073003635ED8
:10352000970093070040AA862E87E39AF4FAAE86A6
:103530002A86D12AAA862E875DB79387D7BEFD5AE1
:10354000B3DAFA00B3F7AA00AA862E87C9DB975729
:1035500001009387278B9043D4437522014681460F
:10356000EF00506FE35BA0F66340040293C7FAFFDD
:10357000337AFA009DB70604058033643401014AAA
:1035800029DC3709F0BF91BFD147638FF40093075F
:103590004003858F8544B394F400A69963F94901EB
:1035A000130914004E8AD9B713091400C1B74E8A03
:1035B00075BF411193D7454122C406C626C293F771
:1035C000F77F2E87AA863284C1E7939715008583FB
:1035D000C98FA5CB9757010093874783D443904366
:1035E000EF003072D177938707CBAA862E8763408E
:1035F000F40E93D7454193F7F77F2E869387A7FC68
:10360000A2979305E07F63C2F50A6345F00A93052C
:10361000B0FC63D0B706B1679387073563C78708E7
:10362000974701009387077F8043C44336862285EE
:10363000BA86A6857528A6862286EF00906CAA8693
:103640002E87B240224492443685BA854101828059
:103650001308F07F2E86E39507FBAE862A86652049
:10366000B2402244AA862E8792443685BA8541010B
:103670008280370710807D1793876703798ED20782
:103680001747010013078779B685D18F544310433C
:103690002E85BE85EF00F066B2402244AA862E87B2
:1036A00092443685BA85410182809747010093870D
:1036B00067759DBF37071080B24022447D17718F18
:1036C000D2075D8F92443685BA8541018280974743
:1036D000010093872774D4439043EF009062B24077
:1036E0002244AA862E8792443685BA85410182807B
:1036F000370700809347F7FFF98EED8F2A87D58F24
:103700003A85BE8582803708100001117D18337715
:10371000B80026CA3378D80093D4450113D34601A4
:10372000131E37004EC61357D5010E089357D60106
:1037300093F4F47F1373F37F06CE22CC4AC893D957
:10374000F50193DEF6013367C701131F350033E837
:103750000701931F3600338E64406380D919635686
:10376000C0136304031CB70680009307F07F33681F
:10377000D800638FF4369307800363C0C735FD47D5
:1037800063CDC747130500023305C541B3D7CF0149
:10379000B316A8003399AF00DD8E33392001B3573B
:1037A000C80133E926011D8F33092F41B3372F019B
:1037B0003306F7409317860063D407243707800049
:1037C0007D173374E600630C042C2285EF208046BD
:1037D000130785FF93070002998FB357F90033163B
:1037E000E400D18F3319E9006341972A33059740EC
:1037F000130615007D47634DC73813070002118F6C
:10380000B356C9003319E9003397E700558F3339B0
:1038100020013369270133D6C700814493777900AB
:1038200081CF1377F90091476308F7001307490028
:10383000333927014A963A899317860063D6071CC5
:10384000138514009307F07FCE856304F520B70736
:1038500080FFFD17F18F9398D70113593900A60700
:10386000B3E82801B1831375F57F9396C70052051D
:10387000F2406244B182FE05C98ECD8ED2444249E7
:10388000B2494685B68505618280631E0E0A1383A0
:1038900014001373E37F63170322B367E701B36870
:1038A000F801639D041A638707406386084433095F
:1038B000FF41B307074133362F013386C7409317C3
:1038C000860063D6074C3389EF41B307E84033B62F
:1038D0002F013386C740F68991B76350C00F63004C
:1038E000030CB70680009307F07F3368D800638A23
:1038F000F43A9307800363CBC713FD4763DFC735F3
:1039000013090EFE93070002B3562801630AFE0056
:10391000130900043309C94133192801B3EF2F01FA
:103920003339F0013369D90031A2B367F801638AF2
:10393000071C9307FEFF638C07389306F07F63092B
:10394000DE1A3E8E0DBDB305934063910422B3672A
:10395000E701638707329387F5FF63810744930686
:10396000F07F638CD520BE859307800363CCB72A94
:10397000FD4763CFB73C930700028D8F3319F700E3
:10398000B356BF00B317FF003369D900B337F00057
:103990003357B7003369F9003308E84041ACB367E7
:1039A000F801638007349307FEFF638A07209306BC
:1039B000F07F6308DE2E3E8E2DBF631E0E149386AD
:1039C000140093F7E67F63910734B367E7016395CB
:1039D000042C6380073EB367F801638E0730330918
:1039E000FF01B3070701333FE9013386E70193176E
:1039F000860063D70700B70780FFFD177D8E8544DB
:103A000093777900E39F07E09317D6019358390025
:103A1000B3E8F800935736001307F07F638DE40492
:103A2000B207B18313F5F47FCE8581B53369F80110
:103A3000333920017A99B337E9013386E7009317C8
:103A40008600E3DF07FA85049307F07F6396F41896
:103A5000CE851305F07F8147814801BDC1EB6384AA
:103A6000083A931636009317D8018D82B3E8D70031
:103A7000F68993573800B3E7F800F9DB8145130561
:103A8000F07FB70708008148CDB3370680FF7D1669
:103A90007D8E93777900998CE39507D8B5B74A85E1
:103AA000EF20401913078501FD47E3D5E7D2130640
:103AB00085FFB317C900014905BB3369F8013339E4
:103AC0002001DDB13309FF413306074133342F01B3
:103AD000330486409317840063CD0724B3688900BC
:103AE000E39308CE8147814981441DBFE39808F8DC
:103AF0000E059317D7010D81B3E8A7009357370040
:103B00009DBF0E059317D7010D81B3E8A700F2847E
:103B10009357370011B73305934063820412B706F9
:103B200080009307F07F558F630DF32E930780037A
:103B300063CBA720FD4763C3A72A93070002898FA1
:103B40003319F700B356AF00B317FF003369D9003C
:103B5000B337F0003357A7003369F9003A987E99DC
:103B6000B337F901338607019A84D1BDB7068000C7
:103B70009307F07F558FE319F3DE931736008D839B
:103B80009318D801B3E81701F68993573800E5B5C3
:103B9000130715FE9306000233D7E700630AD60029
:103BA000930600043386C6403396C7003369C900C4
:103BB000333920013369E9000146814491B5330965
:103BC000FF01B30707013336E9013E9693178600DC
:103BD0008544E3D707E28944B70780FFFD17F18FDB
:103BE0001357190013791900336927019398F701C6
:103BF00033E9280113D6170015B113090EFE9307F8
:103C00000002B3562801630AFE00130900043309B9
:103C1000C94133192801B3EF2F013339F00133695A
:103C2000D90059B63369E7013339200133892F416F
:103C3000B3B72F013306F8409A84F689A5BEB3675F
:103C4000E701638207189307F5FF6384071C930657
:103C5000F07F6304D5123E85D1BD93070002B38780
:103C6000C741B316F8003399FF0033D6CF01D18E88
:103C700033392001B357C80133E926013E975DBBB4
:103C8000931736008D839318D801B3E81701AE84DB
:103C900093573800F68949B3EDC33369F801E31F40
:103CA00009DC0E059317D7010D81B368F500935712
:103CB0003700D1B36381080E931636009317D801ED
:103CC0008D82B3E8D700F6899357380091BB33094A
:103CD000FF41B3070741333F2F013386E741854456
:103CE000D1BC0E059317D7010D81B368F500F2849E
:103CF0009357370015B30E059317D7010D81B3E81D
:103D0000A7009357370029BB9307F07FE382F6D4CF
:103D10003309FF013336E901B3070701B2979398DE
:103D2000F7011359190033E9280113D61700B68497
:103D3000C1B93389EF413307E84033B62F0133046B
:103D4000C740F68949B43369E7013339200101BD21
:103D5000938705FE93060002B357F700638AD500E8
:103D600093060004B385B6403317B700336FEF00F6
:103D70003339E0013369F90055BD931736008D835F
:103D80009318D801B3E8170193573800EDB1B36821
:103D9000C900E39708C68147814959B13389EF418A
:103DA000B307E84033B62F013386C740F689854410
:103DB00011B4931636009317D8018D82B3E8D7005B
:103DC00093573800B1B9931636009317D8018D82F6
:103DD000B3E8D700AA84935738003DB9930705FE8E
:103DE00093060002B357F700630AD5009306000458
:103DF0003385A6403317A700336FEF003339E00156
:103E00003369F900A9BB81451305F07FB7070800A6
:103E1000A9BC3309FF01B30707013336F9013E9608
:103E200075B3931636009317D8018D82B3E8D70087
:103E30009357380089B1397193D7450122DC4AD8AC
:103E400056D22A891394C50006DE26DA4ED652D4FD
:103E50005AD05ECE13F5F77F318093DAF501630B0C
:103E600005109307F07F630BF514135AD9010E0464
:103E700033648A00370A8000336A4401131B390017
:103E8000930415C00144814B13D846011399C60011
:103E90001378F87FB2881359C90093D9F601630EDD
:103EA00008089307F07F6300F8041357D6010E0942
:103EB00033692701130818C0B70780003367F9007A
:103EC00093183600B38404418145BD4733C83A0195
:103ED00063E4871A974701009387C7F40A043E9466
:103EE00010403E9602863367C900938414806312A3
:103EF00007101364240081488945C1BF1306F07F71
:103F000081470147B207F25062545206B1837E08DE
:103F1000D18FB3E70701D2544259B259225A925A6B
:103F2000025BF24B3A85BE8521618280014813060F
:103F3000F07FB70708000147F1B73367C9004DC7E5
:103F4000630809304A8532C4EF10D04E2246130769
:103F500055FFF547930685FF998F3319D900B3575D
:103F6000F60033E72701B318D60026959304353FB2
:103F70008145A1BF336A240163030A0636C632C4F1
:103F80006306042A2285EF10F04A2246B246AA842C
:103F9000130755FF754A138B84FF330AEA40331425
:103FA0006401335A4901336A8A00331B69011305DE
:103FB000D0C0B30495400144814BF9B5336A240164
:103FC00063180A002144014B9304F07F894B6DBDB7
:103FD000228A4A8B31449304F07F8D4B75B511448E
:103FE000014B8144854B4DB51364140081488545D0
:103FF000E9BD136434004A878D45C1BD630A052EAF
:104000008547898F9306800363DDF6320146814739
:104010000147CDBDCE868947638DF53A8D47E3874D
:10402000F5F085473688E383F5FE1385F43FE357C3
:10403000A0FC93F778006396072893D6380093176F
:10404000770063D80700B70700FFFD177D8F138542
:1040500004409307E07FE3C3A7EA1316D701931741
:104060009700B1833367D6001376F57F61BDD6869E
:104070005287DA88DE8545B763614723630DEA20FE
:10408000DA86FD145284014B9317870013D38801FD
:104090003363F300935E0301B357D403131F03018B
:1040A000135F0F0193D50601139E88003374D40368
:1040B0003307FF024204C18D63FBE5009A95138626
:1040C000F7FF63EE652663FCE526F9179A95998D4F
:1040D00033D7D503C206C182B3F5D5033306EF0249
:1040E000C205D58D63FBC5009A959306F7FF63E67D
:1040F000652463F4C52479179A95C20741645D8FDE
:104100009307F4FF3375F70093580701935F0E018F
:10411000B377FE00B302F502B386C540B383F8025D
:1041200093D502013386AF021E962E963385F8038F
:10413000637376002295C168FD18935506013376A6
:1041400016014206B3F81201AA95469663E6B61226
:104150006382B6123306CB408D8E333BCB00338B5C
:1041600066411385F43F630C6317B358DB03935523
:104170000601337BDB03B3061F03420B33EB650100
:10418000637BDB001A9B9385F8FF636D6B20637B79
:10419000DB20F9181A9B330BDB40B356DB034206D6
:1041A0004182337BDB03330FDF02420B3366660150
:1041B000637BE6011A969385F6FF6367661E637557
:1041C000E61FF9161A96C208B3E8D80093950801BD
:1041D00093D20801C181B38EF5023306E641B3855F
:1041E000BF0293D60E01B387F202BE95AE96B38F8F
:1041F0005F0263F4F600C167BE9FC165FD1593D7EA
:104200000601ED8EC206B3FEBE00BE9FF696637F2A
:10421000F6091A969387F8FF6369661A6368F619B8
:10422000630FF61BBE8893E8180011B54A85EF109E
:10423000702013075501F145930405022246B2464A
:10424000E3DAE5D4130485FF331A8900014B85B303
:10425000328532C4EF10101E13075501F146AA87AC
:10426000224613050502E3D6E6CEE1173317F60022
:104270008148E5B9E370CBEE729B3335CB011A95DB
:10428000AA961305F7FF6378D30263E6B61063823C
:10429000D5102A87C1B5E3651BDF93551B00931624
:1042A000FA0113541A00CD8E7E0BF9BBE31DF6F70D
:1042B000E38F06D6B9BFE31ED3FCE378CBFD2A8794
:1042C00051BD93F7F8009146E389D7D693B7C8FF5D
:1042D0009386480093C717008D823E978DB3814621
:1042E0008547E34CA0FEFD58E31C05D0930410C0A5
:1042F00085471385E441B316A70033D6F8003395FC
:10430000A800D18E3335A000C98E13F6760033573E
:10431000F70001CE93F7F60011466388C700938734
:104320004600B3B6D7003697BE869317870063D88A
:104330000704054681470147F1B636877DBBB28742
:1043400079B3FD46E3D7F6FA0556098E93060002C7
:104350003356C7006388D7009387E443B317F70049
:10436000B3E8F800B3361001D18E13F6760081471A
:1043700001CE93F7F60011460147E392C7FA93176F
:1043800097001316D701B18313D73600518F01461A
:1043900095BEE370CBF0729B3335CB011A9579173C
:1043A000AA964DBBAE88C5BBAE8631BD93171E0025
:1043B00033BEC70172931A96F9183E8EE315F6E7DD
:1043C000E307DEC693E818009DB1BE88E30AF6FF56
:1043D00099BD36881306F07F8147014725B6E3670C
:1043E000DEFCBE88E310DEFE99B113D74501B707A6
:1043F0001000FD1713D846011377F77F9308F07F5D
:1044000033FEB700AA8EF58FFD81328F1378F87FC7
:10441000FD82630B1701054363061801631407014E
:10442000630DFE001A858280B368AE000543E39BEE
:1044300008FEE319E8FED18FF5F70543E394EEFF9C
:104440000143E381D5FE054371FF3365AE0033338D
:10445000A000C9BF13D74501B7071000FD1713D837
:1044600046011377F77F9308F07F33F3B7002A8E66
:10447000F58FFD81B28E1378F87FFD8263081703F4
:10448000630018030DEBB368A300631408005D8E8E
:1044900029CA638508046388D502054595ED8280A5
:1044A000B3E8C700E38008FE795582803365A30036
:1044B00065FD630CE802631408005D8E79DEE39EFF
:1044C000D5FCE34CE8FC63480701E3E867FC6303C1
:1044D000F302637FF30081E57D558280F5DE0545BB
:1044E00082800145E39B08FA82805D8E69DA6DBFA8
:1044F00001458280E3E3CEFB0145E372DEFBE5F19B
:10450000E1BF39714AD813D945014ED652D456D29B
:104510009399C50006DE22DC26DA5AD05ECE1379E6
:10452000F97F2A8A93D9C90093DAF501630D090E40
:104530009307F07F6306F9181354D5018E09B36908
:1045400034013704800033E48900931435001309E3
:1045500019C08149814B13D74601139AC6001377BE
:10456000F77FB285135ACA0013DBF601630B0710FD
:104570009307F07F6303F7049357D6010E0A33EADB
:104580004701130717C0B7078000B367FA009315F8
:1045900036003A99814833C76A01BD463A85130807
:1045A000190063E83617174601001306A68B8A091F
:1045B000B29983A60900B2968286B367CA0013092E
:1045C000F97F6399071293E9290081458948E1B78A
:1045D00001479307F07F3704080081443204D20773
:1045E00031807E075D8C598CA285F25062542685FD
:1045F0004259D254B259225A925A025BF24B21616B
:1046000082805A853E84AE84C68B8947638DFB0EBB
:104610008D47E38FFBFA85472A87639EFB388147E6
:104620000144814465BF33E4A90061C036C632C489
:10463000638C092A4E85EF10E05F2246B246AA87B6
:10464000130755FF7544938487FF198CB39999001C
:1046500033548A0033643401B3149A0013D74601EB
:104660001309D0C0139AC6001377F77F3309F940B6
:104670008149814BB285135ACA0013DBF601E31955
:1046800007EEB367CA00B1C7630F0A22528532C46E
:10469000EF10405A22462A87930655FFF5479305A7
:1046A00087FF958F331ABA00B357F600B3E7470177
:1046B000B315B6003309E9401309D9C08148E1BDFB
:1046C00033E4A90001ECA14981441309F07F894B2F
:1046D00059B593E919008145854875BD4E84AA8472
:1046E000B1491309F07F8D4BBDB591498144014912
:1046F000854B95B593E93900D2878D4869BD8947C7
:104700005685E397FBF02A879307F07F01448144A5
:10471000F1B5C16E1386FEFF93D6040113DE0501C9
:10472000F18CF18D338695023383B60293580601DE
:1047300033059E021A95AA98B382C60363F36800F4
:10474000F692C16F1383FFFF33F5670093D3070120
:10475000B3F76800C207337366003E9333069502D1
:1047600093D80801B387A602135F0601B3849302AE
:10477000BE94FA94B38E760263F3F400FE9E416A0F
:104780009307FAFF935F0401B376F400B3F9F400E2
:104790007D8EC1803384D502C209338FD401B29992
:1047A000CE98B307DE02935E0401B385BF02AE97D5
:1047B000BE9E330EFE0363F3BE00529EC167938517
:1047C000F7FF33F6BE006D8C4206229693DE0E0193
:1047D000B305D502769E3385AF0213D40501B386A7
:1047E000D302AA96A296B38FF30363F3A600BE9FEB
:1047F00041657D15B3F7A600C2076D8DAA97B385F5
:104800005800B3B93501FA97B2953384370133B6FE
:10481000C500B30EC4013385CE0033343401B3B7C1
:10482000E701C18F33BECE0113D406013336C50074
:104830003E943366CE009394950032947E94B3E414
:104840006400260493567501B3349000DD819317FC
:104850009500CD8C558CDD8C9317740063DB0700BD
:1048600093D7140085889316F401DD8CD58C0580D0
:1048700042899307F93F6359F00893F6740081CE9B
:1048800093F6F40011466388C60093864400B3B4DF
:1048900096002694B6849316740063D80600B70772
:1048A00000FFFD177D8C930709409306E07F63CFDF
:1048B000F60E93D634009314D4012604D58C31809F
:1048C00093F7F77F21BB328532C4EF10A0369306F1
:1048D0005501F147130705022246E3D1D7DC6115E4
:1048E000B317A6008145F9B3EF10C0341307550183
:1048F000F145930705022246B246E3D5E5D461159A
:104900003314AA00814499BB85469D8EB1E71309F3
:10491000E941B3972401B3D4D40033192401B33748
:10492000F000B3649900DD8C93F77400B356D400A3
:1049300081CF93F7F40011466388C7009387440042
:10494000B3B49700A696BE849397860063D80704F5
:1049500085470144814459B113068003E341D6CC15
:104960007D46E356D6FA0556B307F6409305000296
:104970003356F4006387B6001309E943B3172401E3
:10498000DD8CB3349000D18C93F67400014499CA45
:1049900093F7F40011468146E392C7FA1394960008
:1049A0003180F6068D80D58C81470DB99307F07F55
:1049B0000144814425B142896DBD370710007D1740
:1049C00001113373B70093D84601758F935ED601FA
:1049D00022CC26CA0E0393D445019357D5010E0766
:1049E00006CE4AC84EC693F8F87F130EF07F33E721
:1049F000EE0093F4F47F13D4F50133E36700131F43
:104A00003500FD82931E36006380C81993C61600D8
:104A1000B38514416305D4126351B018638B081A2F
:104A2000B70780005D8F6381C4599307800363C417
:104A3000B734FD4763C5B748930700028D8FB3D9DC
:104A4000BE003318F700B39EFE00336838013357B9
:104A5000B700B339D001336838013303E340B309F9
:104A60000F41B3373F013306F3409317860063D3FA
:104A70000724370980007D1933792601630F092C3B
:104A80004A85EF10201B130785FF93070002998FBB
:104A9000B3D7F9003316E900D18FB399E900634425
:104AA000972A058F13061700FD4663C5C63A1307FC
:104AB0000002118FB3D6C9003398E9003397E7009D
:104AC000558F33380001B369070133D6C7008144DD
:104AD00093F7790081CF93F6F90091476388F60048
:104AE0009386490033B836014296B68993178600FB
:104AF00063D6071C138714009307F07F05886306AD
:104B0000F720B70780FFFD17F18F1398D70193D9CE
:104B10003900A60733683801B1831377F77F93967E
:104B2000C7005207B1827E04D98EC18EF240624422
:104B3000D2444249B2494285B685056182806356B6
:104B4000B00A638A0812B70780005D8F6387C42D9F
:104B50009307800363C7B718FD4763D2B73C138838
:104B600005FE93070002B3590701638AF500930716
:104B70000004B385B7403317B700B3EEEE00333807
:104B8000D0013368380195A2B367D70193851480AB
:104B900099E393C61600630AD404D1E19387140005
:104BA00093F7E77F6399071EB367E3013368D70183
:104BB000639204166382073C63160842131835009B
:104BC0009316D3011358380033E806019357330086
:104BD00019A2B367D7016385071A9387F5FF638B23
:104BE000073A638CC523BE8589B56399051C9386F6
:104BF000140093F7E67FC1EFB367E30163900436D7
:104C0000638D0744B367D701639407460E051318F5
:104C1000D3010D813368A800935733006DA8B38585
:104C2000984063970420B367E301638D073093874F
:104C3000F5FF638907401305F07F6383A520BE85D8
:104C40009307800363C2B72AFD4763C8B73C930745
:104C500000028D8F3318F3003356BF00B317FF00E7
:104C60003368C800B339F0003353B30033683801F8
:104C700033076740B5ACB367D701638307109387E9
:104C8000F5FF638F071E6380C52FBE85D1B59307DF
:104C9000F07F638BF606FA9E33B6EE01B307E300AE
:104CA000B2971398F70193DE1E00B369D80113D6AB
:104CB0001700B68493F77900E39F07E09317D601B6
:104CC00013D839003368F800A685935736001307C8
:104CD000F07F6380E506B207B18313F7F57F05889F
:104CE0003DBD3367D7013338E000B309E801B3B7FE
:104CF000E9013386670093178600E3DD07FA850430
:104D00009307F07F639CF41805881307F07F8147B1
:104D1000014831B5639107106301083C1318360050
:104D20009317D701135838003368F8003684935727
:104D30003700B367F800E9DB01441307F07FB707DA
:104D400008000148E9BB370680FF7D167D8E93F78A
:104D50007900998CE39107D895B74E85EF00906D57
:104D600013078501FD47E3D2E7D2130685FFB3970A
:104D7000C90081492DB33368D70133380001C5B16B
:104D8000131835009317D301135838003368F8000F
:104D9000935733002DBFB309DF413309E340333666
:104DA0003F013309C9409317890063CA072033E8DC
:104DB0002901E31508CC8147014431BFB3859840F0
:104DC00063810414B70680009307F07F3363D30038
:104DD0006381F8209307800363CCB722FD4763C942
:104DE000B72C930700028D8F3318F300B356BF0022
:104DF000B317FF003368D800B339F0003353B30062
:104E0000336838011A97B309D801B3B7D90133868B
:104E1000E700C684CDB5E31108F2131835009317E7
:104E2000D301135838003368F8009357330011B793
:104E3000370580009307F07F3363A300E392F8E027
:104E40000E061318D7010D823368C8009357370038
:104E50003684C5B505179306000233D7E700630A09
:104E6000D600930600043386C6403396C700B3E9E4
:104E7000C90033383001B369E800014681441DBDE3
:104E8000B309DF01B307E30033BFE9013386E7016C
:104E9000931786008544E3DF07E08944B70780FF66
:104EA000FD17F18F13D7190013F8190033680701A4
:104EB0009399F701B3E9090113D6170011B91388C3
:104EC00005FE93070002B3590701638AF5009307B3
:104ED0000004B385B7403317B700B3EEEE003338A4
:104EE000D00133683801A5BE3363E3013338600075
:104EF000B3890E41B3B73E013306F740C68436840A
:104F0000ADB6B367E301638707189387F5FF638C3A
:104F1000071C9306F07F638ED50ABE8565BD930797
:104F200000028D8FB3D9BE003318F700B39EFE0088
:104F3000336838013357B700B339D00133683801CB
:104F40003A9365B3131836009317D70113583800F6
:104F500033E8070136849357370095BBBDCB3367E1
:104F6000D701E31B07DC0E051318D3010D8133684D
:104F7000A8009357330075BBE30F08E213183600FF
:104F80009317D701135838003368F80036849357C5
:104F9000370091B3B309DF41B307E340333F3F012B
:104FA0003386E7418544D1B4131835009316D301F5
:104FB0001358380033E80601935733009DBBB3897B
:104FC000EE413306674033B93E013309264136844A
:104FD00075B40E061318D7010D823368C8009357B5
:104FE000370081BBB309DF41B307E34033363F01EC
:104FF0003386C7409317860063D7070AB389EE410B
:10500000B3076740B3BE3E013386D7413684C9B487
:105010003363E30133386000FDB3138805FE930763
:105020000002B3590301638AF50093070004B385B6
:10503000B7403313B300336F6F003338E001336888
:1050400038017DB5B389EE41B3076740B3BE3E0179
:105050003386D7413684854409BC1318360093172C
:10506000D701135838003368F80093573700A5B1BB
:10507000B309DF01B307E30033BFE9013386E7017A
:1050800093178600E3D807C2B70780FFFD177D8E10
:1050900085440DB10E061318D7010D823368C80080
:1050A000935737002DB133E8C900E30608D019B192
:1050B000138805FE93070002B3590301638AF500C4
:1050C00093070004B385B7403313B300336F6F0009
:1050D0003338E001336838013DB301441307F07FF2
:1050E000B70708002DBCB309DF01B307E300B3BE67
:1050F000D9013386D70169BB93D74501B7061000A4
:105100001387F6FF93F7F77F1306E03F6D8FFD815E
:10511000635CF6001306D041635AF6003705008041
:105120001345F5FF2E95828001458280130630439A
:105130001D8E7D48558F635DC80093063041B3874F
:10514000F640B357F7003305F040E5F13E85828025
:105150009387D7BEB317F7003355C500C98FE5B79E
:1051600093D74501B70610001387F6FF93F7F77F33
:105170001306E03F2A886D8F0145FD816354F600D8
:1051800099C1828082801306E0417D55E34BF6FE93
:10519000130530431D8D7D46558F634AA6009387C6
:1051A000D7BE3317F7003355A800598D82801305F9
:1051B0003041B307F5403355F7008280411106C6F0
:1051C00022C426C20DCD9357F541B3C4A7009D8CD0
:1051D0002A842685EF0010269306E041898EA94790
:1051E0007D8093F6F67F63CDA7022D47098FB3D755
:1051F000E4005505B207B394A400B18329A001448B
:10520000814681478144B207D206B1837E04D58F9F
:10521000C18FB24022442685BE85924441018280DE
:105220005515B397A400B207B1838144E9BF41117A
:10523000370780007D1713D8750126C29354750176
:105240003373A70093F4F40FB376B7004AC0137812
:10525000F80F1359F50106C622C4FD819A872685E9
:105260004A86131E3300939E3600B3880441630AB6
:10527000B90E6350100D630408149307F00F638B8D
:10528000F414B7070004B3EEFE00ED4763C117291D
:1052900093070002B3871741B397FE00B3D81E01EE
:1052A000B337F000B3E7F800B307FE401397570099
:1052B000635E0718370400047D147D8C2285EF009F
:1052C00070176D15B317A4006348951A058D130464
:1052D000150013070002018F3397E7003337E00012
:1052E000B3D78700D98F814413F7770019C713F715
:1052F000F70091466303D700910713975700635B4C
:10530000071485041307F00F4A866383E4169A078F
:10531000A58313F5F40FB2402244A6079314750138
:1053200013D59700458D7E0692440249518D410167
:1053300082806399080A138714001377E70F6317B5
:10534000071463900422630D0E1EE3860EFCB30760
:10535000DE411397570063500722B387CE412E8951
:1053600061B7635C100B630E08089307F00F63834B
:10537000F406B7070004B3EEFE00ED4763C9171F3C
:1053800093070002B3871741B397FE00B3D81E01FD
:10539000B337F000B3E7F800F2971397570063575D
:1053A000070A85041307F00F6384E40CB706007E38
:1053B00013D71700FD16858B758FD98F35B7638D81
:1053C0000E08FD18B307DE41E38208EE9307F00FE5
:1053D000E39DF4EA630D030801461305F00FB707D8
:1053E000400015BF33079840EDE863020E147D17A7
:1053F000630807189307F00F6319F80E2E89368398
:10540000D1BF638B0E04FD18B307DE01E38708F8F4
:105410009307F00FE393F4F675BF639508088504CE
:1054200013F7E40F6313071263170510630F0E14CD
:10543000E3830EEEB307DE011397570081446357F1
:105440000700370700FC7D17F98F854413F77700B5
:10545000E31F07E813D337009307F00FE38CF4F64C
:1054600093179300A58313F5F40F4A866DB54A860A
:105470001305F00F814745B5370700FC7D17F98FFD
:1054800013F77700898CE31407E6E9B73304DE41AC
:105490009317540063C3070CE31204E2014601456D
:1054A000814795BD33079840ADC49307F00FE308DB
:1054B000F8F4B7070004336EFE00ED4763CCE70C49
:1054C00093070002998FB317FE003357EE00B337EE
:1054D000F000D98FF697C284C9B59307F00FE30F98
:1054E000F8F0B7070004336EFE00ED4763C3E7082A
:1054F00093060002998EB316DE00B357EE003337E1
:10550000D000D98FB387FE40C2842E8945B385472A
:1055100061BB630E0E067D17B307DE01C284E30E86
:1055200007E69307F00FE31AF8F8368365B536837C
:10553000C2842E8915B7E3040EECE38D0EE869BD35
:10554000638D0E022E86B687F9B39307F00FE381C1
:10555000F4F2B307DE018583D5BD3384CE412E89B5
:10556000B1BBE31C0EFCE3890EE62E8949BD8547DD
:1055700025B5854741BFE39B07EC0146814761BBE9
:10558000B387CE41C2842E8915B3B68769B33683FB
:10559000C284D9B585473DBF797122D413547501B2
:1055A0004ECE52CC9319950006D626D24AD056CA72
:1055B0005AC81374F40F93D99900135AF50169C4AA
:1055C0009307F00F6308F40E939739003707000430
:1055D000B3E9E700130414F88144014B13D77501B4
:1055E000939A95001377F70F93DA9A0013D9F50180
:1055F00045CF9307F00F630CF7028E0A130717F8D5
:10560000B7070004B3EAFA003A94014633452A0189
:10561000BD47AA869305140063E097101737010071
:10562000130747888A04BA949C40BA978287130468
:10563000F40F63960A0C93E424000946C1BF0145A8
:105640001307F00FB7074000B2502254A6075E07B9
:10565000A5837E05D98F92540259F249624AD24AF3
:10566000424B5D8D45618280CA86D689328B8947DF
:10567000630FFB088D47E304FBFC85473685631009
:10568000FB1A01478147C9B7639D090413D7750108
:10569000939A95001377F70F91440144054B93DAE1
:1056A0009A0013D9F50131F7639D0A0093E41400C1
:1056B0000546A9BF63920902A1441304F00F094BE8
:1056C00031BF5685852B9307B5FF098CB39AFA0035
:1056D0001304A4F801461DBFB1441304F00F0D4B91
:1056E000F5BD4E852EC6B9239307B5FF1304A0F868
:1056F000B399F900098C8144014BB245C5B593E4D7
:1057000034000D4621B78947D286E315FBF636856E
:105710001307F00F81470DBF41639306F3FF13D6C4
:10572000090193D80A01B3F7D900B3FADA00338834
:105730005703B389F80213570801B30A5603D699E1
:105740004E9733061603637357011A96C167FD1708
:10575000B376F7003378F800C206C29693996600D4
:1057600093570701B3393001E982B2979A07B3E63C
:10577000D900B3E9D7009397490063D9070013D73D
:10578000190093F71900B369F7002E841307F40783
:105790006350E00493F7790099C793F7F9009146B5
:1057A0006383D70091099397490063D90700B7072E
:1057B00000F8FD17B3F9F900130704089307E00F89
:1057C00063CBE70493976900A5831377F70FADBD0B
:1057D0008547B386E74011C76D4601478147E345DA
:1057E000D6E61307E4093397E9003337E000B3D76F
:1057F000D900D98F13F7770019C713F7F70091462F
:105800006303D700910713975700634C07009A076B
:10581000A583014715BD1307F00F814735B52E84C9
:10582000B5B7054781470DB5370680001357750199
:105830009307F6FF1377F70F9305E007B3F6A7007A
:105840009357F50163FCE5009305D00963FAE50081
:10585000370500801345F5FF3E9582800145828023
:1058600093055009D18E63CDE50013066009330717
:10587000E64033D7E6003305E040F5F33A85828011
:105880001307A7F63397E600FDB7411106C622C4F9
:1058900026C20DCD9357F54133C4A7001D8CAA84B1
:1058A0002285492E9307E0093387A74093076009B3
:1058B000FD8063CCE702A1469377F70F63D5A6007E
:1058C00061153314A4002604258021A0814481475A
:1058D0000144260413559400B2402244DE07FE041E
:1058E0005D8D458D9244410182809307900963DD6F
:1058F000E7009307B5019546B317F400898E33543A
:10590000D400B337F0005D8C954763D6A7009307AA
:10591000B5FF3314F400B70600FCFD16937774004E
:105920003376D40085C39377F4009145638CB70038
:1059300011069317560063D707009307F009758E79
:105940003387A7401314660025809377F70F51B76C
:10595000411106C622C415CD2A84E92C9307E0091B
:105960003387A7409307600963C0E704A146937794
:10597000F70F63D5A60061153314A4002604258013
:10598000260413559400B2402244DE075D8D410188
:1059900082800144260413559400B240224481477A
:1059A000DE075D8D410182809307900963DDE7008A
:1059B0009307B5019546B317F400898EB337F0000D
:1059C0003354D4005D8C954763D6A7009307B5FF89
:1059D0003314F400B70600FCFD1693777400337699
:1059E000D40085C39377F4009145638CB70011060A
:1059F0009317560063D707009307F009758E338716
:105A0000A740131466002580260413559400B24065
:105A100022449377F70FDE075D8D41018280135793
:105A200075011377F70F41119307170022C426C29F
:105A30001314950006C693F7E70F25809354F501DC
:105A400085C793573400130707387604B207520707
:105A5000B1831395F401D98FC98FB24022852244B6
:105A60009244BE854101828005EB39C42285D9224A
:105A7000A94763C6A7042D47098F930755013357DC
:105A8000E4003314F4009317C70013079038098F0C
:105A9000B1831377F77F5DBF01CC13573400B7078D
:105AA0000800D98FB2077604B1831307F07F79BF5E
:105AB0001307F07F814759BF0147814741BF130753
:105AC00055FF3317E40001447DBF93D645019397FA
:105AD000C50093F6F67FB183138616008E07135721
